:10000000020720A9C0937559003222020AFB6D2213
:10001000801375B500A936B3FCA9C6B3E5B57A0B54
:10002000B00B140B24BD3238E922FF0209B7A9C274
:10003000B47405120B25120B18A9D2B430E002D308
:1000400022C322020003CA3B7A15097F31750F00D3
:100050007E3509BE340000384F7E34FFFF7A350903
:10006000750F0180437E3400807A35127F137E083D
:1000700002781200F27E35099E3400807A35092E0E
:100080003800806D337A35107E3510096302787E32
:100090000D0B7E0B706C767A0B707E35100B347AFC
:1000A0003510BE34008078E07E3509BE34008038DB
:1000B000B4E50F60050B347A35097E35097A3512BF
:1000C0007F137E0802781200F26D3380177E3510A0
:1000D000096302787E0D0B7E0B706C767A0B707E56
:1000E00035100B347A35107E3509BE351038DEDA1E
:1000F0003B22120A247E351212000EA9D2B4D3225A
:100100000B40F4BF4E9EB161B1DB4E24FF00FF00F7
:10011000FFFFFFFFFFFFFFFFFFFFFFFFFFFFFFFFEF
:100120007C6BC202E5411478030203391BB17803EA
:1001300002029C24FD78030203391478030202F9B9
:100140001BB1780302032024F9780302033524AF9E
:1001500078030203A324FD684814780302033C14C7
:1001600078030203391BB2780302033924DA6834B6
:1001700024E6682D24FA68491BB178030201FD14B6
:10018000780302029C24F478030201FD24F378032F
:1001900002033924D7780302033924A06803020339
:1001A000AD0203AABE6004500C7519007C162E1017
:1001B000437CB7A5F7A5BE000280030203ADD202BF
:1001C000227CB614680D14681714681F2403680392
:1001D0000203AD0A376D337A354F7A355A0203AAD6
:1001E0007C676C772E354F7A354F220A372E354F84
:1001F0007A354F7E3400067A354D0203AA7CB62448
:100200000078030203AD1BB1681E14681E14681E3B
:1002100014681E0BB278333001077E0800600202BA
:10022000B97E08016C0202B902036102036802038D
:10023000800A277E0D5C0B160B0A302D321B0A300C
:100240006D337E0D5C7930000622E541B4B2047C4A
:10025000B762197E2D5C2E5400060B2A207D120BEE
:10026000141B2A107E0D5C2D12397000087E0D5C67
:100270006950000469200006BD2550030203ADB299
:10028000017A0D547E2400027A254DE541B4B20274
:1002900080030203AD7E34000702039F7CB61BB1CE
:1002A000681D14681D0BB168030203AD3001067EA2
:1002B00008006080047E08016C7A0D5C0203500225
:1002C00003610AF76DEE7E2D5C691200020B2A00B5
:1002D0002F07791200021B2A007E0D5C7A0D54D282
:1002E000027E2400017A254DE541B4B30280030269
:1002F00003AD7E34000802039F75E600E47E3401FE
:10030000047E2400FF7A1BB07E3401057A1BB07E88
:100310003401087A1BB07E3401097A1BB0D2032263
:10032000A5BE01047A715822A5BE02028003020311
:10033000AD7A7142227A715122D202221B61682168
:100340001B6068241B6068381B6068400B62785D26
:100350000A377D036D117E1D5C791100021B1A00A6
:10036000220A577CABE480020A576D447E0D5C691B
:100370003000020B0A202F12793000021B0A2022C3
:100380007C676C777E0D5C79300004220A277E0D35
:100390005C0B160B0A302D321B0A307E3400037AB8
:1003A000354D227E3400047A354D75190022CAF885
:1003B0007EF070759100C290C2917E3400027A3551
:1003C000127E181F807E0800091200F2E509BEB0F7
:1003D000FF6817E5096013E50A0A2BE5090A3B2DBA
:1003E00032BE3400FF78037EF1097CBF54FEF592E3
:1003F000D2E8C2C0A9D5B7D2BDD2ADDAF822FFFF8C
:1004000056302E364465632032302032303137008A
:1004100046545338303036555F7072616D626F6F7D
:100420007400120AEA7E354D1B3468541B35687619
:100430001B3478030204D01B3578030205531B34A8
:10044000780302056D1B3478030205B12E340006D3
:1004500068030205F16D337A354D7A355230040563
:10046000120AC2C2047E0D54693000047A350F6945
:100470003000020B0A202E14000812060B0205950C
:100480006D337A354D7E3401007A35127E0D546914
:100490003000020B0A202E1400081200F220000384
:1004A0000205F10205E86D337A354D7A35527E1832
:1004B00000197A1D0B7E0D54693000020B0A206969
:1004C000100004120046120AC27E34F05502054D97
:1004D0006D337A354D7A3552E558B40A15E4120970
:1004E000767EF0107CBF1208A40BF0BEF01778F4F3
:1004F0008054E558B40B117EE0027CBE1208A40BB8
:10050000E0BEE01778F4803EE558B40C06E412082B
:10051000A48033E558B40D117ED0127CBD1208A41E
:100520000BD0BED01578F4801DE5580A5B9E5400B0
:1005300080F5086CCC8009E5081208A405080BC0FA
:10054000E542BCBC38F1120AC27E34F0AA7A3552B8
:100550000205F16D337A354D7A3552741D1208A4B7
:10056000120AC27E34F0AA7A35520205F16D337A4E
:10057000354D7A3552300405120AC2C2047E0D543C
:10058000693000047A3509693000020B0A202E1404
:1005900000081207F8D2047E2D5469120004693253
:1005A00000020B2A201208512E3410007A35528096
:1005B000406D337A354D7E0D54693000020B0A20B0
:1005C0000B242E18D000793000021B0A207E340143
:1005D000007A35127E0D54693000020B0A202E1469
:1005E00000081200F23000097E1D5429B10008F500
:1005F000912003030204257E341388120A707E348E
:100600001388120A7075E9FF020425CA3B7A0D0BA4
:100610007F315E34007F7D237E3400809D327A35C9
:10062000117E350FBE35113802805D7E35117A3569
:10063000137F137E0D0B1209337E350F9E35117A11
:10064000350F7E35116D222F317E1D0B2E35117A1F
:100650001D0B80277E3400807A35137F137E0D0BAF
:100660001209337E350F9E3400807A350F7E1D0BC4
:100670002E3400807A1D0B2E3800807E350FBE345C
:10068000008050D04D33680B7A35137F137E0D0BED
:10069000120933D3DA3B227C7B7EA0EFE54124FDB7
:1006A00068311BB1686714686B24A068331BB2689B
:1006B0003424B7681E24E7682724D7684024657867
:1006C0005CA5BF00057EA0F08053A5BF014F7EA0B2
:1006D000A6804A0A177E1D5C2D3129A10008803DA5
:1006E0007EA1198038A5BF00097E35520A567CAB21
:1006F000802BA5BF01277E55527CAB8020A5BF0073
:1007000003E51822A5BF0105E51864FF22A5BF0077
:1007100003740122A5BF00057EB302FC227CBA222D
:100720007584017E441FFFE47A49B01B4478F97E4A
:10073000F802FCD204751800751900751A00751BB3
:1007400000D200C202C203754100754200754D001F
:10075000754E00754F00755000755100755200754B
:10076000530075580B755900755A00755B007E046F
:1007700000FF7E140B300B0A405D44681A692000AC
:10078000020B0E0B44800A7E0BB07A29B00B240BAF
:100790000C1B4478F280DF0204227E34D0007E24D9
:1007A00000017EA0107E00217E14FFFF7CB2A5F622
:1007B0000B007CB3A5F60B001BA078F07E154F0A4A
:1007C000027A11217A31227E14FFFF9E154F0A0210
:1007D0007A11237A31247E1025E519A5F7E5190A47
:1007E0000B7E1400FF9D107A31267E1400207A15AE
:1007F0000F7E08002102060B0B242E18D0002E18A5
:1008000000207E54D0007E440001BF1240427E553D
:10081000097DD56DCC2F617EF4E0007EE40001BF40
:1008200067382D7E454FBE440FE038247DF52EF508
:100830005A7AF55ABE540000280BBE455A40067A33
:10084000550F12060B7E354FBE355A780302079AB4
:10085000226D0074104D00780B4D2278278D317D6C
:10086000126D22227D437D326D222F112D445002C4
:10087000A50FBF1040049F100B901478ED7F016D01
:10088000227D34227D417D138D247D022F00400482
:10089000BD0440049D040B141478F17D237D317D4B
:1008A000106D00227CABD205120AD77420CAB80A98
:1008B0003A6D22740C2F111478FBDAB81209F7A9DB
:1008C000D2B46D337A351A12002E50097E351ABE15
:1008D0003401F428F27E351ABE3401F4280FC286A2
:1008E000C2877E341388120A70D286D28722D2053C
:1008F000120AD7A9C2B47405120B25120B187CABCF
:10090000A9D2B4D205120AD75EA0C3A9C2B4740199
:10091000120B257CBA120B25A9D2B412002E40FB73
:10092000A9C2B47405120B25120B187AB302FCA9E4
:10093000D2B4227F70D205120AD774021209F77F4F
:10094000077E3513120A8FA9D2B46D337A351A1285
:10095000002E50097E351ABE34006428F27E351A06
:10096000BE340064280FC286C2877E341388120A00
:1009700070D286D287227CABD205120AD774D80AED
:100980003A7D236D331209F7A9D2B46D337A351A43
:1009900012002E50097E351ABE340FA028F27E3583
:1009A0001ABE340FA0280FC286C2877E3413881265
:1009B0000A70D286D28722CA7BCA2BCA1BCA0BD224
:1009C0000030901CC2907E7191E55970037A71419C
:1009D000E5591201200559300206E4120697F591F7
:1009E00030910BC2910559E559120697F591DA0B32
:1009F000DA1BDA2BDA7B327CAB7D127CB3F5177C09
:100A0000367C250A047CB3F5167CB7F515A9C2B46B
:100A10007CBA120B25E517120B25E516120B25E5FE
:100A200015020B257D52F5167CB67CA50A44F515FA
:100A30007F21F514A9C2B4740B120B25E516120B15
:100A400025E515120B25E514120B25E4020B25D222
:100A5000CF75CC0075ECFF75EEFF75EB0375ACC080
:100A6000A9C5CA75ED0F75ADB0A9D794A9D49422C4
:100A700080140000000000000000000000000000E2
:100A80000000000000007D231B344D2278E4226D1D
:100A90002280127F200B147E2BB0F5B5A936B3FC53
:100AA000A9C6B30B24BD3238EAD3226D337A351A86
:100AB000C28CC28D438902758C01758A00D28CD29A
:100AC000A922E551B40C0FC286C2877E340064129D
:100AD0000A70D286D28722A9C2B430050474068077
:100AE000027404120B25A9D2B422120A4F120B0A67
:100AF0001203AE120AABD2AF02000ACA39C28D7E0F
:100B0000351A0B347A351ADA3932D2C875B303A9DB
:100B1000D1B4A9C0B40208EE75B500A936B3FCA9DA
:100B2000C6B3E5B522F5B5A936B3FCA9C6B3D32241
:100B3000000102FC00000402F800009C000000FF1D
:00000001FF
